{
  "contractName": "Wadaag",
  "abi": [
    {
      "constant": true,
      "inputs": [],
      "name": "maxOwners",
      "outputs": [
        {
          "name": "",
          "type": "uint8"
        }
      ],
      "payable": false,
      "stateMutability": "view",
      "type": "function"
    },
    {
      "constant": true,
      "inputs": [],
      "name": "name",
      "outputs": [
        {
          "name": "",
          "type": "string"
        }
      ],
      "payable": false,
      "stateMutability": "view",
      "type": "function"
    },
    {
      "constant": true,
      "inputs": [
        {
          "name": "",
          "type": "address"
        }
      ],
      "name": "totalOwner",
      "outputs": [
        {
          "name": "",
          "type": "uint256"
        }
      ],
      "payable": false,
      "stateMutability": "view",
      "type": "function"
    },
    {
      "constant": true,
      "inputs": [],
      "name": "totalDeposited",
      "outputs": [
        {
          "name": "",
          "type": "uint256"
        }
      ],
      "payable": false,
      "stateMutability": "view",
      "type": "function"
    },
    {
      "inputs": [
        {
          "name": "_name",
          "type": "string"
        }
      ],
      "payable": false,
      "stateMutability": "nonpayable",
      "type": "constructor"
    },
    {
      "anonymous": false,
      "inputs": [
        {
          "indexed": true,
          "name": "_address",
          "type": "address"
        },
        {
          "indexed": false,
          "name": "shareRatio",
          "type": "uint256"
        }
      ],
      "name": "AddOwner",
      "type": "event"
    },
    {
      "anonymous": false,
      "inputs": [
        {
          "indexed": true,
          "name": "_address",
          "type": "address"
        }
      ],
      "name": "RemoveOwner",
      "type": "event"
    },
    {
      "anonymous": false,
      "inputs": [
        {
          "indexed": true,
          "name": "_from",
          "type": "address"
        },
        {
          "indexed": false,
          "name": "_value",
          "type": "uint256"
        }
      ],
      "name": "Deposit",
      "type": "event"
    },
    {
      "anonymous": false,
      "inputs": [
        {
          "indexed": true,
          "name": "to",
          "type": "address"
        },
        {
          "indexed": false,
          "name": "value",
          "type": "uint256"
        }
      ],
      "name": "Receive",
      "type": "event"
    },
    {
      "anonymous": false,
      "inputs": [
        {
          "indexed": true,
          "name": "from",
          "type": "address"
        },
        {
          "indexed": true,
          "name": "to",
          "type": "address"
        },
        {
          "indexed": false,
          "name": "value",
          "type": "uint256"
        }
      ],
      "name": "TransferRatio",
      "type": "event"
    },
    {
      "constant": true,
      "inputs": [],
      "name": "listOwners",
      "outputs": [
        {
          "name": "",
          "type": "address[]"
        }
      ],
      "payable": false,
      "stateMutability": "view",
      "type": "function"
    },
    {
      "constant": true,
      "inputs": [
        {
          "name": "_address",
          "type": "address"
        }
      ],
      "name": "isOwner",
      "outputs": [
        {
          "name": "",
          "type": "bool"
        }
      ],
      "payable": false,
      "stateMutability": "view",
      "type": "function"
    },
    {
      "constant": true,
      "inputs": [],
      "name": "countOwners",
      "outputs": [
        {
          "name": "",
          "type": "uint256"
        }
      ],
      "payable": false,
      "stateMutability": "view",
      "type": "function"
    },
    {
      "constant": false,
      "inputs": [],
      "name": "deposit",
      "outputs": [],
      "payable": true,
      "stateMutability": "payable",
      "type": "function"
    },
    {
      "constant": true,
      "inputs": [
        {
          "name": "account",
          "type": "address"
        }
      ],
      "name": "balanceOf",
      "outputs": [
        {
          "name": "",
          "type": "uint256"
        }
      ],
      "payable": false,
      "stateMutability": "view",
      "type": "function"
    },
    {
      "constant": false,
      "inputs": [],
      "name": "withdrawal",
      "outputs": [],
      "payable": false,
      "stateMutability": "nonpayable",
      "type": "function"
    },
    {
      "constant": true,
      "inputs": [
        {
          "name": "account",
          "type": "address"
        }
      ],
      "name": "percOf",
      "outputs": [
        {
          "name": "",
          "type": "uint256"
        }
      ],
      "payable": false,
      "stateMutability": "view",
      "type": "function"
    },
    {
      "constant": false,
      "inputs": [
        {
          "name": "account",
          "type": "address"
        },
        {
          "name": "perc",
          "type": "uint256"
        }
      ],
      "name": "transferRatio",
      "outputs": [],
      "payable": false,
      "stateMutability": "nonpayable",
      "type": "function"
    }
  ],
  "bytecode": "0x60806040523480156200001157600080fd5b50604051620017b0380380620017b0833981018060405260208110156200003757600080fd5b8101908080516401000000008111156200005057600080fd5b828101905060208101848111156200006757600080fd5b81518560018202830111640100000000821117156200008557600080fd5b50509291905050508060009080519060200190620000a592919062000124565b50600060038190555060006005819055506001600090806001815401808255809150509060018203906000526020600020016000909192909190916101000a81548173ffffffffffffffffffffffffffffffffffffffff021916908373ffffffffffffffffffffffffffffffffffffffff1602179055505050620001d3565b828054600181600116156101000203166002900490600052602060002090601f016020900481019282601f106200016757805160ff191683800117855562000198565b8280016001018555821562000198579182015b82811115620001975782518255916020019190600101906200017a565b5b509050620001a79190620001ab565b5090565b620001d091905b80821115620001cc576000816000905550600101620001b2565b5090565b90565b6115cd80620001e36000396000f3fe6080604052600436106100c4576000357c01000000000000000000000000000000000000000000000000000000009004806370b0fc471161008157806370b0fc47146102e8578063d0e30db014610343578063d4e932921461034d578063ed60c0fc14610364578063fcbf9bfd146103d0578063ff50abdc14610435576100c4565b806303d7c769146100c9578063045b76ca146100f457806306fdde03146101255780632f54bf6e146101b55780634e6985031461021e57806370a0823114610283575b600080fd5b3480156100d557600080fd5b506100de610460565b6040518082815260200191505060405180910390f35b34801561010057600080fd5b5061010961046f565b604051808260ff1660ff16815260200191505060405180910390f35b34801561013157600080fd5b5061013a610474565b6040518080602001828103825283818151815260200191508051906020019080838360005b8381101561017a57808201518184015260208101905061015f565b50505050905090810190601f1680156101a75780820380516001836020036101000a031916815260200191505b509250505060405180910390f35b3480156101c157600080fd5b50610204600480360360208110156101d857600080fd5b81019080803573ffffffffffffffffffffffffffffffffffffffff169060200190929190505050610512565b604051808215151515815260200191505060405180910390f35b34801561022a57600080fd5b5061026d6004803603602081101561024157600080fd5b81019080803573ffffffffffffffffffffffffffffffffffffffff16906020019092919050505061056e565b6040518082815260200191505060405180910390f35b34801561028f57600080fd5b506102d2600480360360208110156102a657600080fd5b81019080803573ffffffffffffffffffffffffffffffffffffffff169060200190929190505050610586565b6040518082815260200191505060405180910390f35b3480156102f457600080fd5b506103416004803603604081101561030b57600080fd5b81019080803573ffffffffffffffffffffffffffffffffffffffff169060200190929190803590602001909291905050506105cf565b005b61034b610922565b005b34801561035957600080fd5b50610362610a98565b005b34801561037057600080fd5b50610379610c26565b6040518080602001828103825283818151815260200191508051906020019060200280838360005b838110156103bc5780820151818401526020810190506103a1565b505050509050019250505060405180910390f35b3480156103dc57600080fd5b5061041f600480360360208110156103f357600080fd5b81019080803573ffffffffffffffffffffffffffffffffffffffff169060200190929190505050610cb4565b6040518082815260200191505060405180910390f35b34801561044157600080fd5b5061044a610d2a565b6040518082815260200191505060405180910390f35b60006001808054905003905090565b60c981565b60008054600181600116156101000203166002900480601f01602080910402602001604051908101604052809291908181526020018280546001816001161561010002031660029004801561050a5780601f106104df5761010080835404028352916020019161050a565b820191906000526020600020905b8154815290600101906020018083116104ed57829003601f168201915b505050505081565b600080600460008473ffffffffffffffffffffffffffffffffffffffff1673ffffffffffffffffffffffffffffffffffffffff1681526020019081526020016000205411156105645760019050610569565b600090505b919050565b60046020528060005260406000206000915090505481565b6000600660008373ffffffffffffffffffffffffffffffffffffffff1673ffffffffffffffffffffffffffffffffffffffff168152602001908152602001600020549050919050565b600073ffffffffffffffffffffffffffffffffffffffff168273ffffffffffffffffffffffffffffffffffffffff1614151515610674576040517f08c379a000000000000000000000000000000000000000000000000000000000815260040180806020018281038252600c8152602001807f7a65726f2061646472657373000000000000000000000000000000000000000081525060200191505060405180910390fd5b60008111801561068c575061068833610cb4565b8111155b1515610700576040517f08c379a000000000000000000000000000000000000000000000000000000000815260040180806020018281038252600c8152602001807f696e76616c69642070657263000000000000000000000000000000000000000081525060200191505060405180910390fd5b600061076e61070e33610cb4565b61076084600460003373ffffffffffffffffffffffffffffffffffffffff1673ffffffffffffffffffffffffffffffffffffffff16815260200190815260200160002054610d3090919063ffffffff16565b610d6e90919063ffffffff16565b905060006107c482600460003373ffffffffffffffffffffffffffffffffffffffff1673ffffffffffffffffffffffffffffffffffffffff16815260200190815260200160002054610d9890919063ffffffff16565b9050600081141561084d576107d833610dba565b151561084c576040517f08c379a00000000000000000000000000000000000000000000000000000000081526004018080602001828103825260118152602001807f72656d6f76654f776e6572206572726f7200000000000000000000000000000081525060200191505060405180910390fd5b5b80600460003373ffffffffffffffffffffffffffffffffffffffff1673ffffffffffffffffffffffffffffffffffffffff168152602001908152602001600020819055506108a682600354610d9890919063ffffffff16565b6003819055506108b68483610f43565b508373ffffffffffffffffffffffffffffffffffffffff163373ffffffffffffffffffffffffffffffffffffffff167f21209d347c0ad9ffb3ef897085bddb873d7e72d2e1ba89ed1c89de42a434a97a856040518082815260200191505060405180910390a350505050565b3373ffffffffffffffffffffffffffffffffffffffff167fe1fffcc4923d04b559f4d29a8bfc6cda04eb5b0d3c460751c2402c5c5cc9109c346040518082815260200191505060405180910390a2600180805490501415610a17576109cf34600660003373ffffffffffffffffffffffffffffffffffffffff1673ffffffffffffffffffffffffffffffffffffffff1681526020019081526020016000205461132590919063ffffffff16565b600660003373ffffffffffffffffffffffffffffffffffffffff1673ffffffffffffffffffffffffffffffffffffffff16815260200190815260200160002081905550610a8b565b346005819055506000600190505b600180549050811015610a8157610a74600182815481101515610a4457fe5b9060005260206000200160009054906101000a900473ffffffffffffffffffffffffffffffffffffffff16611346565b8080600101915050610a25565b5060006005819055505b610a953334610f43565b50565b6000600660003373ffffffffffffffffffffffffffffffffffffffff1673ffffffffffffffffffffffffffffffffffffffff16815260200190815260200160002054111515610b4f576040517f08c379a000000000000000000000000000000000000000000000000000000000815260040180806020018281038252600f8152602001807f62616c616e6365206973207a65726f000000000000000000000000000000000081525060200191505060405180910390fd5b6000600660003373ffffffffffffffffffffffffffffffffffffffff1673ffffffffffffffffffffffffffffffffffffffff1681526020019081526020016000205490506000600660003373ffffffffffffffffffffffffffffffffffffffff1673ffffffffffffffffffffffffffffffffffffffff168152602001908152602001600020819055503373ffffffffffffffffffffffffffffffffffffffff166108fc829081150290604051600060405180830381858888f19350505050158015610c1e573d6000803e3d6000fd5b506000905050565b60606001805480602002602001604051908101604052809291908181526020018280548015610caa57602002820191906000526020600020905b8160009054906101000a900473ffffffffffffffffffffffffffffffffffffffff1673ffffffffffffffffffffffffffffffffffffffff1681526020019060010190808311610c60575b5050505050905090565b600080610d1f600354610d11600460008773ffffffffffffffffffffffffffffffffffffffff1673ffffffffffffffffffffffffffffffffffffffff16815260200190815260200160002054612710610d3090919063ffffffff16565b610d6e90919063ffffffff16565b905080915050919050565b60035481565b600080831415610d435760009050610d68565b60008284029050828482811515610d5657fe5b04141515610d6357600080fd5b809150505b92915050565b60008082111515610d7e57600080fd5b60008284811515610d8b57fe5b0490508091505092915050565b6000828211151515610da957600080fd5b600082840390508091505092915050565b600080600260008473ffffffffffffffffffffffffffffffffffffffff1673ffffffffffffffffffffffffffffffffffffffff1681526020019081526020016000205490506000600180808054905003815481101515610e1657fe5b9060005260206000200160009054906101000a900473ffffffffffffffffffffffffffffffffffffffff16905081600260008373ffffffffffffffffffffffffffffffffffffffff1673ffffffffffffffffffffffffffffffffffffffff1681526020019081526020016000208190555080600183815481101515610e9757fe5b9060005260206000200160006101000a81548173ffffffffffffffffffffffffffffffffffffffff021916908373ffffffffffffffffffffffffffffffffffffffff1602179055506001805480919060019003610ef49190611550565b508373ffffffffffffffffffffffffffffffffffffffff167fac6e8398676cf37429d530b81144d7079e99f4fe9d28b0d88c4a749ceccbe8cd60405160405180910390a2600192505050919050565b60008073ffffffffffffffffffffffffffffffffffffffff168373ffffffffffffffffffffffffffffffffffffffff1614151515610fe9576040517f08c379a000000000000000000000000000000000000000000000000000000000815260040180806020018281038252600c8152602001807f7a65726f2061646472657373000000000000000000000000000000000000000081525060200191505060405180910390fd5b600082111515611061576040517f08c379a000000000000000000000000000000000000000000000000000000000815260040180806020018281038252600c8152602001807f736861726573206172652030000000000000000000000000000000000000000081525060200191505060405180910390fd5b60c960ff166001805490501015156110e1576040517f08c379a000000000000000000000000000000000000000000000000000000000815260040180806020018281038252600a8152602001807f6d6178206f776e6572730000000000000000000000000000000000000000000081525060200191505060405180910390fd5b6000600260008573ffffffffffffffffffffffffffffffffffffffff1673ffffffffffffffffffffffffffffffffffffffff16815260200190815260200160002054141561126a576001808490806001815401808255809150509060018203906000526020600020016000909192909190916101000a81548173ffffffffffffffffffffffffffffffffffffffff021916908373ffffffffffffffffffffffffffffffffffffffff16021790555003600260008573ffffffffffffffffffffffffffffffffffffffff1673ffffffffffffffffffffffffffffffffffffffff1681526020019081526020016000208190555081600460008573ffffffffffffffffffffffffffffffffffffffff1673ffffffffffffffffffffffffffffffffffffffff168152602001908152602001600020819055508273ffffffffffffffffffffffffffffffffffffffff167f1effd8f7a331d696023fc8f1833eb151874826d98bf93626952aa991f740b727836040518082815260200191505060405180910390a2611300565b6112bc82600460008673ffffffffffffffffffffffffffffffffffffffff1673ffffffffffffffffffffffffffffffffffffffff1681526020019081526020016000205461132590919063ffffffff16565b600460008573ffffffffffffffffffffffffffffffffffffffff1673ffffffffffffffffffffffffffffffffffffffff168152602001908152602001600020819055505b6113158260035461132590919063ffffffff16565b6003819055506001905092915050565b600080828401905083811015151561133c57600080fd5b8091505092915050565b6000600460008373ffffffffffffffffffffffffffffffffffffffff1673ffffffffffffffffffffffffffffffffffffffff168152602001908152602001600020541115156113fd576040517f08c379a00000000000000000000000000000000000000000000000000000000081526004018080602001828103825260098152602001807f6e6f20736861726573000000000000000000000000000000000000000000000081525060200191505060405180910390fd5b6000611467600354611459600460008673ffffffffffffffffffffffffffffffffffffffff1673ffffffffffffffffffffffffffffffffffffffff16815260200190815260200160002054600554610d3090919063ffffffff16565b610d6e90919063ffffffff16565b90506114bb81600660008573ffffffffffffffffffffffffffffffffffffffff1673ffffffffffffffffffffffffffffffffffffffff1681526020019081526020016000205461132590919063ffffffff16565b600660008473ffffffffffffffffffffffffffffffffffffffff1673ffffffffffffffffffffffffffffffffffffffff168152602001908152602001600020819055508173ffffffffffffffffffffffffffffffffffffffff167fd6717f327e0cb88b4a97a7f67a453e9258252c34937ccbdd86de7cb840e7def3826040518082815260200191505060405180910390a25050565b81548183558181111561157757818360005260206000209182019101611576919061157c565b5b505050565b61159e91905b8082111561159a576000816000905550600101611582565b5090565b9056fea165627a7a7230582062abc01e7d2b0042eb91b657a5f794b7c05da1b6a7ca1db86cc4bf17844aa2b50029",
  "source": "pragma solidity 0.5.4;\n\n// Wadaag By Solange Gueiros\n\ncontract Wadaag {\n    using SafeMath for uint256;\n\n    string public name;\n\n    uint256 internal constant decimalpercent = 10000;   //100.00 = precisão da porcentagem (2) + 2 casas para 100%\n    uint8  public constant maxOwners = 201;             //Número máximo de owners - calculado com base nas transferencias / depósitos em batch\n\n    address[] private owners;\n    mapping (address => uint256) private indexOwner;     //posicao no array\n\n    uint256 public totalDeposited;                                //total depositado\n    mapping (address => uint256) public totalOwner;   //total depositado por address\n    uint256 private _valueDeposited;                              //Valor que será dividido de acordo com o shareRatio\n    mapping (address => uint256) private _balances;               //Saldo disponivel em USD que cada pessoa pode retirar\n\n\n    constructor(string memory _name) public {\n        name = _name;\n        totalDeposited = 0;\n        _valueDeposited = 0;\n        owners.push(address(0x0));  //posicao 0 zerada\n    }\n\n    function listOwners() public view returns (address[] memory) {\n        return owners;\n    }\n\n    function isOwner(address _address) public view returns (bool) {\n        if (totalOwner[_address] > 0)\n            return true;\n        else\n            return false;\n    }\n\n    function countOwners() public view returns (uint256) {\n        return owners.length-1;\n    }\n\n    function _addOwner(address account, uint256 shareRatio) internal returns (bool) {\n        require(account != address(0), \"zero address\");\n        require(shareRatio > 0, \"shares are 0\");\n        require(owners.length < maxOwners, \"max owners\");\n\n        if (indexOwner[account] == 0) {\n            indexOwner[account] = owners.push(account)-1;\n            totalOwner[account] = shareRatio;\n            emit AddOwner(account, shareRatio);\n        }\n        else {\n            totalOwner[account] = totalOwner[account].add(shareRatio);\n        }\n\n        totalDeposited = totalDeposited.add(shareRatio);\n        return true;\n    }\n\n    function _removeOwner(address _address) internal returns (bool) {\n        //Retirar do array Owner\n        uint256 indexToDelete = indexOwner[_address];\n        address addressToMove = owners[owners.length-1];\n        indexOwner[addressToMove] = indexToDelete;\n        owners[indexToDelete] = addressToMove;\n        owners.length--;\n        emit RemoveOwner(_address);\n        return true;\n    }\n\n    event AddOwner (address indexed _address, uint256 shareRatio);\n    event RemoveOwner (address indexed _address);\n\n    event Deposit(address indexed _from, uint256 _value);\n\n    function deposit() external payable {\n        emit Deposit(msg.sender, msg.value);\n\n        if (owners.length == 1) {\n            //Só tem a primeira posicao zerada,\n            _balances[msg.sender] = _balances[msg.sender].add(msg.value);\n        }\n        else {\n             _valueDeposited = msg.value;\n            for (uint256 i = 1; i < owners.length; i++) {\n                _receive(owners[i]);\n            }\n            _valueDeposited = 0;\n        }\n\n        _addOwner(msg.sender, msg.value);\n    }\n\n    event Receive(address indexed to, uint256 value);\n\n    function _receive(address account) internal {\n        require(totalOwner[account] > 0, \"no shares\");\n\n        uint256 payment = _valueDeposited.mul(totalOwner[account]).div(totalDeposited);\n        _balances[account] = _balances[account].add(payment);\n        emit Receive(account, payment);\n    }\n\n    //Balance in the contract in behalf of account\n    function balanceOf(address account) public view returns (uint256) {\n        return _balances[account];\n    }\n\n    //Withdrawal value in the contract in behalf of msg.sender\n    function withdrawal() public {\n        require(_balances[msg.sender] > 0, \"balance is zero\");\n\n        uint256 value = _balances[msg.sender];\n        _balances[msg.sender] = 0;\n\n        msg.sender.transfer(value);\n        delete value;\n    }\n\n    //% da conta em relação ao total\n    function percOf(address account) public view returns (uint256) {\n        uint256 value = decimalpercent.mul(totalOwner[account]).div(totalDeposited);\n        return value;\n    }\n\n    event TransferRatio(address indexed from, address indexed to, uint256 value);\n\n    //Transfer a perc (based in total) in Border to another account\n    function transferRatio(address account, uint256 perc) public {\n        require(account != address(0), \"zero address\");\n        require((perc > 0 && perc <= percOf(msg.sender) ), \"invalid perc\");\n\n        //Calcular a parte em relacao a perc\n        uint256 part = totalOwner[msg.sender].mul(perc).div(percOf(msg.sender));\n        uint256 newPart = totalOwner[msg.sender].sub(part);\n\n        //Se totalOwner[msg.sender] = 0, retiro do array para não passar por ele sem necessidade\n        if (newPart == 0) {\n            require(_removeOwner(msg.sender), \"removeOwner error\");\n        }\n\n        totalOwner[msg.sender] = newPart;\n        totalDeposited = totalDeposited.sub(part);\n        _addOwner(account, part);\n        emit TransferRatio (msg.sender, account, perc);\n    }\n\n}\n\n\nlibrary SafeMath {\n    //By OpenZeppelin\n\n    function mul(uint256 a, uint256 b) internal pure returns (uint256) {\n        if (a == 0) {\n            return 0;\n        }\n\n        uint256 c = a * b;\n        require(c / a == b);\n        return c;\n    }\n\n    function div(uint256 a, uint256 b) internal pure returns (uint256) {\n        require(b > 0);\n        uint256 c = a / b;\n        return c;\n    }\n\n    function sub(uint256 a, uint256 b) internal pure returns (uint256) {\n        require(b <= a);\n        uint256 c = a - b;\n        return c;\n    }\n\n    function add(uint256 a, uint256 b) internal pure returns (uint256) {\n        uint256 c = a + b;\n        require(c >= a);\n        return c;\n    }\n\n    function mod(uint256 a, uint256 b) internal pure returns (uint256) {\n        require(b != 0);\n        return a % b;\n    }\n}",
  "sourcePath": "/home/eu/projetos/_/fiap/fiap-blc-ethereum-dapps-and-api-integration/contract/contracts/Wadaag.sol",
  "compiler": {
    "name": "solc",
    "version": "0.5.4+commit.9549d8ff.Emscripten.clang"
  },
  "schemaVersion": "3.0.16",
  "updatedAt": "2020-07-01T02:22:30.059Z",
  "devdoc": {
    "methods": {}
  },
  "userdoc": {
    "methods": {}
  }
}